:020000040000fa
:080000000002040000000000f2
:020000040000fa
:04000800c80200002a
:020000040000fa
:04000c00c802000026
:020000040000fa
:04001000c802000022
:020000040000fa
:04001400c80200001e
:020000040000fa
:04001800c80200001a
:020000040000fa
:04001c00c802000016
:020000040000fa
:04002000c802000012
:020000040000fa
:04002400c80200000e
:020000040000fa
:04002800c80200000a
:020000040000fa
:04002c00c802000006
:020000040000fa
:04003000c802000002
:020000040000fa
:04003400c8020000fe
:020000040000fa
:04003800c8020000fa
:020000040000fa
:04003c00c8020000f6
:020000040000fa
:04004000c8020000f2
:020000040000fa
:04004400c8020000ee
:020000040000fa
:04004800c8020000ea
:020000040000fa
:04004c00c8020000e6
:020000040000fa
:04005000c8020000e2
:020000040000fa
:04005400c8020000de
:020000040000fa
:04005800c8020000da
:020000040000fa
:04005c00c8020000d6
:020000040000fa
:04006000c8020000d2
:020000040000fa
:04006400c8020000ce
:020000040000fa
:04006800c8020000ca
:020000040000fa
:04006c00c8020000c6
:020000040000fa
:04007000c8020000c2
:020000040000fa
:04007400c8020000be
:020000040000fa
:04007800c8020000ba
:020000040000fa
:04007c00c8020000b6
:020000040000fa
:04008000c8020000b2
:020000040000fa
:04008400c8020000ae
:020000040000fa
:04008800c8020000aa
:020000040000fa
:04008c00c8020000a6
:020000040000fa
:04009000c8020000a2
:020000040000fa
:04009400c80200009e
:020000040000fa
:04009800c80200009a
:020000040000fa
:04009c00c802000096
:020000040000fa
:0400a000c802000092
:020000040000fa
:0400a400c80200008e
:020000040000fa
:0400a800c80200008a
:020000040000fa
:0400ac00c802000086
:020000040000fa
:0400b000c802000082
:020000040000fa
:0400b400c80200007e
:020000040000fa
:0400b800c80200007a
:020000040000fa
:0400bc00c802000076
:020000040000fa
:0400c000c802000072
:020000040000fa
:0400c400c80200006e
:020000040000fa
:0400c800c80200006a
:020000040000fa
:0400cc00c802000066
:020000040000fa
:0400d000c802000062
:020000040000fa
:0400d400c80200005e
:020000040000fa
:0400d800c80200005a
:020000040000fa
:0400dc00c802000056
:020000040000fa
:0400e000c802000052
:020000040000fa
:0400e400c80200004e
:020000040000fa
:0400e800c80200004a
:020000040000fa
:0400ec00c802000046
:020000040000fa
:0400f000c802000042
:020000040000fa
:0400f400c80200003e
:020000040000fa
:0400f800c80200003a
:020000040000fa
:0400fc00c802000036
:020000040000fa
:04010000c802000031
:020000040000fa
:04010400c80200002d
:020000040000fa
:04010800c802000029
:020000040000fa
:04010c00c802000025
:020000040000fa
:04011000c802000021
:020000040000fa
:04011400c80200001d
:020000040000fa
:04011800c802000019
:020000040000fa
:04011c00c802000015
:020000040000fa
:04012000c802000011
:020000040000fa
:04012400c80200000d
:020000040000fa
:04012800c802000009
:020000040000fa
:04012c00c802000005
:020000040000fa
:04013000c802000001
:020000040000fa
:04013400c8020000fd
:020000040000fa
:04013800c8020000f9
:020000040000fa
:04013c00c8020000f5
:020000040000fa
:04014000c8020000f1
:020000040000fa
:04014400c8020000ed
:020000040000fa
:04014800c8020000e9
:020000040000fa
:04020800c802000028
:020000040000fa
:04020c00c802000024
:020000040000fa
:04021000c802000020
:020000040000fa
:04021400c80200001c
:020000040000fa
:04021800c802000018
:020000040000fa
:04021c00c802000014
:020000040000fa
:04022000c802000010
:020000040000fa
:04022400c80200000c
:020000040000fa
:04022800c802000008
:020000040000fa
:04022c00c802000004
:020000040000fa
:04023000c802000000
:020000040000fa
:04023400c8020000fc
:020000040000fa
:04023800c8020000f8
:020000040000fa
:04023c00c8020000f4
:020000040000fa
:04024000c8020000f0
:020000040000fa
:04024400c8020000ec
:020000040000fa
:04024800c8020000e8
:020000040000fa
:04024c00c8020000e4
:020000040000fa
:04025000c8020000e0
:020000040000fa
:04025400c8020000dc
:020000040000fa
:04025800c8020000d8
:020000040000fa
:04025c00c8020000d4
:020000040000fa
:04026000c8020000d0
:020000040000fa
:04026400c8020000cc
:020000040000fa
:04026800c8020000c8
:020000040000fa
:04026c00c8020000c4
:020000040000fa
:04027000c8020000c0
:020000040000fa
:04027400c8020000bc
:020000040000fa
:04027800c8020000b8
:020000040000fa
:04027c00c8020000b4
:020000040000fa
:04028000c8020000b0
:020000040000fa
:04028400c8020000ac
:020000040000fa
:04028800c8020000a8
:020000040000fa
:04028c00c8020000a4
:020000040000fa
:04029000c8020000a0
:020000040000fa
:04029400c80200009c
:020000040000fa
:04029800c802000098
:020000040000fa
:04029c00c802000094
:020000040000fa
:0402a000c802000090
:020000040000fa
:0402a400c80200008c
:020000040000fa
:0402a800c802000088
:020000040000fa
:0402ac00c802000084
:020000040000fa
:0402b000c802000080
:020000040000fa
:0402b400c80200007c
:020000040000fa
:0402b800c802000078
:020000040000fa
:0402bc00c802000074
:020000040000fa
:0402c000c802000070
:020000040000fa
:0402c400c80200006c
:020000040000fa
:0402c800c802000068
:020000040000fa
:0402cc00c802000064
:020000040000fa
:0402d000c802000060
:020000040000fa
:0402d400c80200005c
:020000040000fa
:0402d800c802000058
:020000040000fa
:0402dc00c802000054
:020000040000fa
:0402e000c802000050
:020000040000fa
:0402e400c80200004c
:020000040000fa
:0402e800c802000048
:020000040000fa
:0402ec00c802000044
:020000040000fa
:0402f000c802000040
:020000040000fa
:0402f400c80200003c
:020000040000fa
:0402f800c802000038
:020000040000fa
:0402fc00c802000034
:020000040000fa
:04030000c80200002f
:020000040000fa
:04030400c80200002b
:020000040000fa
:04030800c802000027
:020000040000fa
:04030c00c802000023
:020000040000fa
:04031000c80200001f
:020000040000fa
:04031400c80200001b
:020000040000fa
:04031800c802000017
:020000040000fa
:04031c00c802000013
:020000040000fa
:04032000c80200000f
:020000040000fa
:04032400c80200000b
:020000040000fa
:04032800c802000007
:020000040000fa
:04032c00c802000003
:020000040000fa
:04033000c8020000ff
:020000040000fa
:04033400c8020000fb
:020000040000fa
:04033800c8020000f7
:020000040000fa
:04033c00c8020000f3
:020000040000fa
:04034000c8020000ef
:020000040000fa
:04034400c8020000eb
:020000040000fa
:04034800c8020000e7
:020000040000fa
:100400000f8020000e7f22000e01880000000000f7
:10041000000020000000e000020032000001200087
:1004200020028800140007005b0007000000e000c5
:1004300003003a0000002000010020000200370005
:100440000000200001002000810f70000100320038
:1004500014000700000020000000e000020032004d
:100460000000020000000000ee0402000000000096
:100470000040da000000fe004440a900a001200076
:100480000000e0000300320000002000a00188000e
:100490004440a800000006008a1f78008b1f7800e7
:1004a0000000060091018800800478000000eb0045
:1004b0001a003700e284440032a0b4009905ba0063
:1004c000e284440032a0b4009906ba00e2844400f9
:1004d00032a0b4000006eb00476fde00fd07b2005b
:1004e000636ce10003003a00ebff07000000eb0043
:1004f0000a003700606ce10004003a00005deb0088
:100500008b05e900fdff3e00040037006168e10053
:10051000010032000086eb000b00070019c7ba008b
:100520001905ba000e04e00003003a000a00e000da
:10053000e0ff3a0000000600fe07b2009e018800be
:100540008a047800f5ff3700395dba008b05e900b1
:100550000c003200295dba008b05e900080032006a
:100560000c00e00003003a00e284440032a0b40032
:10057000f5ff370019ddba008b05e900faff3a00f4
:100580008904e800e184440032a0b40000000600c1
:0c0590000040da000000fe000000050042
:020000040000fa
:10059c00686500006c6c00006f200000776f000035
:1005ac00726c000064000000696d000020620000a5
:1005bc00656c00006f770000206c00006f6c000011
:0405cc00000000002b
:020000040000fa
:1005d0000200fa00004f78001602a8000000000098
:1005e000b0108000610060000000e000fcff3a00f5
:1005f000c00720009010880000000000c11080009b
:1006000000002400008060000000e000fbff3a00d2
:100610001222ef0000000000c11080000000240042
:10062000008060000000e000fbff3a001e00fb00bd
:100630009010880000000000c1108000000024001d
:10064000008060000000e000fbff3a001642a800b6
:1006500000000000b0108000640060000000e000b6
:10066000fcff3a000021ef0005e1a80000000000b7
:1006700020048000680060000000e000fcff320001
:100680008460a90010002000e80007000080fa0044
:10069000000006000000fa0017e2a900d0092000bf
:1006a000a010880017e2a80020032000df00070048
:1006b00080c3b300c6ff070090c3b300c4ff0700a8
:1006c00040c1b300c2ff070000c7b300c0ff07006e
:1006d000e0c5b300beff0700c0c6b300bcff070003
:1006e000800c2000d100070080c3b300b8ff0700d2
:1006f000c0c0b300b6ff070010c0b300b4ff0700ce
:1007000020002000c90007000080fa000000060059
:100710000200fa00004f78001602a800020037001d
:10072000c007200090108800b010800061006000b9
:100730000000e000faff3a0000000000c110800055
:1007400000002400008060000000e000fbff3a0091
:10075000000420009010880000000000c1108000fc
:1007600000002400008060000000e000fbff3a0071
:100770001e00fb009010880000000000c1108000e7
:1007800000002400008060000000e000fbff3a0051
:100790001642a80000000000b01080006400600055
:1007a0000000e000fcff3a000080fa0000000600b4
:1007b0000000fa00c202a800001920009b000700f8
:1007c000c202a9000019200098000700f9ff3700b5
:1007d0000400fa002047980031479800be4090007e
:1007e000600020008008dd002e40900000cf400017
:1007f00000c8b3001e4f40001602a80002003700d8
:10080000c007200090108800b010800061006000d8
:100810000000e000faff3a0000000000c110800074
:1008200000002400008060000000e000fbff3a00b0
:100830001222ef0000000000c11080000000240020
:10084000008060000000e000fbff3a001e80fb001b
:100850009010880000000000c110800000002400fb
:10086000008060000000e000fbff3a001642a80094
:1008700000000000b0108000640060000000e00094
:10088000fcff3a000080fa00000006000200fa00b7
:10089000000f78001602a80002003700c0072000f1
:1008a00090108800b0108000610060000000e0003f
:1008b000faff3a0000000000c11080000000240090
:1008c000008060000000e000fbff3a0013003700ea
:1008d000000c20009010880000000000c110800073
:1008e00000002400008060000000e000fbff3a00f0
:1008f0001e007800104078000000fb009010880077
:1009000000000000c1108000000024000080600092
:100910000000e000fbff3a001e0fe8001e00e800a8
:10092000104078000004e000e9ff3a0000042000d5
:100930009010880000000000c1108000000024001a
:10094000008060000000e000fbff3a001e0078001d
:10095000104078000000fb009010880000000000ac
:10096000c110800000002400008060000000e00052
:10097000fbff3a001642a80000000000b010800003
:10098000640060000000e000fcff3a00800c2000e2
:10099000260007000080fa00000006000000fa00b0
:1009a000213a8000f08f2f0000806000203a8800fc
:1009b000f0ff290060198800c022ef0030002000fd
:1009c00040168800cc22ef0010002000201688007e
:1009d00030ff07000080fa00000006000000fa0067
:1009e000eeff0700800c200010000700e02c28001c
:1009f000a6ff0700400620000c00070011c0b3004e
:100a00000040eb0072ff0700800c20000700070089
:100a1000a02d28009dff0700b0c1b300ecfe070029
:100a2000401f200001000700fbff37000400fa0010
:100a3000100798000000eb00000f78009e00900067
:100a4000010f780002003700060007001e0fe900c2
:100a50001e0078000000e000fbff3c000080fa0070
:100a600000000600793e09000000000000000600ba
:020000040000fa
:020000040001f9
:0457f8000ff90000a5
:020000040000fa
:020000040001f9
:0457fc007f3f0000eb
:00000001FF
